:10000000020026021003000000000002100B000096
:10001000000000021013000000000002101B00008E
:10002000000000021023E4F5D0F50EF50D758155A2
:1000300012071430B03FC28E75985A758921758D9C
:1000400000789020B0FDD8FE158D785E30B0F72096
:10005000B0FD30B0FDD28E1200EB0D4D43532D3567
:10006000312054494E592042415349432056322EA3
:10007000328D02085FD242D2410208803098FDE5FD
:1000800099C298547FB40303020114B4610040077D
:10009000B47B00500254DF22740D3099FDC299F5F3
:1000A00099B40D0A3099FDC29975990A8004C3D597
:1000B0005004755008D32230980A117CB4130511EE
:1000C0007CB411FB227420119A50FA22540F700351
:1000D000204807C248240383119A22303132333436
:1000E0003536373839414243444546D083D082E4DF
:1000F00093A310E704119A80F6119AE47302086240
:1001000011EB484F573F8D80F411EB534F5252592A
:10011000218D80E911EB0D574841543F8D80DEA9B8
:100120002AB92C004021FEE7FF19E7CE19892A19C8
:1001300022A92AE7152A22A92AB94D00500909EE59
:10014000F709EFF7892A2231090FA92AB94D005082
:10015000F619E70987F009F709A7F0892A22D08361
:10016000D082E493052AA92AB94F02809CF7740132
:10017000D3738090A0B08898A8B8898A8B8C8D9909
:100180008E80228E90228EA0228EB0228E88228E89
:1001900098228EA8228EB8228E89228E8A228E8B59
:1001A000228E8C228E8D228E9922E58022E590224D
:1001B000E5A022E5B022E58822E59822E5A822E51F
:1001C000B822E58922E58A22E58B22E58C22E58D9D
:1001D00022E59922900172E4FDED93697004ED230C
:1001E0002D220DEDB40EF22100FEE920E703EEF71B
:1001F0002231D490018073E920E702E72231D490C4
:1002000001AA73EE54F820E70423C42420F9EE5425
:1002100007240383F5F0220102040810204080D255
:100220004B8002C24B311F8E088F09311F31313094
:100230004B06052A052A052A90023D9373052329BA
:100240003E3EEE2320400D2410F924D94099A70802
:1002500009A70922F975A020E508F309E509F322A9
:10026000EEF9E5088083510331F7FEE50820E0064A
:10027000E5F0F45E21E9E5F04E21E98FA0EEF9E525
:1002800008F322D24B8002C24B311F3131304B0672
:10029000052A052A052A90029B937305252B373ED4
:1002A000EE2320400E2410F924D94012E7FE09E77E
:1002B000FF2137F975A020E3FE09E3FF213721E78D
:1002C000EEF931F78019510331F755F024FFE4338B
:1002D000800D8FA0EEF9E380068F838E82E4937FFA
:1002E00000FE213724D0B40A005005FE7F00C24D25
:1002F00022204D3E24D0B40A00401330443424EF71
:10030000B406004007B4072AD24DD322240ACE7582
:10031000F00A30440375F010C0F0A42EFEE435F06E
:10032000CFD0F0A42FFF72E7E5F034FFB0444004D3
:10033000D322C322310002A2D2B0444001223100B4
:1003400006E72EF709E73FF722311F714180E831B8
:100350001FC3E79EF709E79FF780DC311FE75EF7D1
:1003600009E75FF722311FE74EF709E74FF7223120
:100370001FE76EF709E76FF722C3B24AA92A19E40B
:1003800097F709E497F780AFD380F1A92AE7A2E7AE
:10039000B04440E522204AE122A92A1907B7000209
:1003A000090722C2D5A92AE76005EF6002D2D51954
:1003B000E78FF0A430D202D2D509C78EF0A430D294
:1003C00002D2D527F772D592D519E78EF0A4F7E5BA
:1003D000F00927F772D572E792D222C24A718B31A7
:1003E0001F718B71A37137719522D24C8002C24C60
:1003F000D24A718B7179311FEE4F604DA24AB04CD9
:10040000924A718BF50919E7F508E4F50BF50A7DB9
:1004100011C38017E50A33F50AC50B33C50B2EF55A
:100420000CE50B3F5005850C0AF50BE50833F50884
:10043000E50933F509DDDD204C07A70809A7098088
:1004400005A70A09A70B719522613EAE0DAF0E31CB
:10045000377E557F6271A37E197F36A92A197141B3
:10046000311FBE0007BF80047E2A7F318E0D8F0EA4
:10047000313722311F3131F5F0A92A19C3E79E091E
:10048000C72044066480CF6480CF9F477004A2F1E8
:1004900080084004A2F08002A2F2E4F73319F722A8
:1004A000C2492041057A207834222042057A0C780E
:1004B0001D227A1078802288518A528C5322AA52A7
:1004C000A851AC5322204302E6222041048AA0E234
:1004D00022E8C582CAC583F8E493C8C583CAC58229
:1004E000C82210490991C5FC08B800010A22EC2273
:1004F0002041048BA0F322210091F009B900010BE7
:100500002291E2642060FAD249D32291E291E291F1
:10051000E2B40DFB22D083D08291E291B7E493A2A2
:10052000E7547F6C7012A3400B91E2BC2EEFE49372
:10053000A330E7FAB101E473E493A330E7FA91BE84
:10054000D249C3E47391E224BFFE24E65004D249A9
:10055000C32291B791E224BF24E65003BC2E409100
:10056000BED249B11544425954C55005315E01808F
:1005700027B115524249D45005315E02801AB11597
:1005800058425954C55005315E03800CB1154342A1
:100590005954C55008315E04120B8BD322C322314B
:1005A0005E007F003137D249A10191E251E440035E
:1005B000D2492291E251F140FA3137D249A1019159
:1005C000E2F5086422600864056004C3D249229100
:1005D000E2B50802A101119AB40DF4211491E2BC14
:1005E0003A032291E2BC0D0122D249211491E2BCCE
:1005F0003A0122BC0D0122D249D32291E2F5559154
:10060000E2F554E555A2E72230430280EED32211F1
:1006100098BC3A05B101020888020883E52A24043F
:10062000F508A80811EBBE117CB4121211EB8D88ED
:1006300051A808E8655160EFE6119A0880F5B418F2
:100640000611EB238D80DBB47F11E8B5080511EBB3
:100650008780D411EB0820881880CCB84E0511EBA8
:100660008780C4F6119A08B40DBDA808C24922C2F9
:100670004A718B311FD248E4F5087D1020441D30AB
:100680004A0311EBADCE33CECF33CFC50835E0D41E
:10069000C50835E0D4DDEEFFEE33AE0811CCEFC473
:1006A00011CCEF11CC304402C248EEC411CCC24888
:1006B000EE11CC30440311EBC822B1FB4012AF5510
:1006C000AE54C24AD17511EBA091E2119AB40DF962
:1006D00022D24391A011B74004D1BA50F8C24322AC
:1006E000C24A11EB3AA0117C119AB4200280F7B4EF
:1006F0002B0280F2B42D04B24A80EB51E450071172
:100700007C119AB47F0611EB238D80D451F140EF18
:1007100031376195E4F528F52975A020F8745AF26F
:10072000E2645A600AE47810F608B828FB8009D21F
:1007300040E4F8F208B834FB22F114783474FFF284
:1007400022752A2A91A0D24322D24391A0311F912F
:10075000B7B1FB4012EE9554F554EF9555455460F2
:10076000064004B10F80E881BEA951AB52B10B9194
:10077000E291F920E70D91E291F991E291F9B40D3E
:10078000F980EC2291BEC24991E220E70991E29101
:10079000E2B40DFB80F2E50F240328F9E43AFBB440
:1007A0003002210991CA91F0E8B55105EAB552012C
:1007B0002218B8FF011A19B9FFEA1B80E7A951AB4B
:1007C00052EF91F9EE91F9A84FE691F908B40DF9BD
:1007D0002218884FF1494002F169A94F1909E7B47D
:1007E0000DFBE9C3954FF50F6004F184F1BDC243E1
:1007F00022311FEE1322F14940030208832100AF8A
:1008000055AE5402013712074912050B020883E85E
:10081000C0E0E52A24FEF924F9F87D03E76670209C
:100820001819DDF8D0E0F8120223E52A24FDF9C3F7
:10083000E7950809E720440564806309809509224B
:10084000D0E0F8020114C24302086AA92A87F0190D
:10085000E719892AC0E0C0F043D01822020114121F
:100860000739C243758155752A2A1200EB4F4B8D0B
:1008700012061C1205011205AA500D1207D180F0B4
:1008800012074112060840DA1200B71205011205DC
:10089000455008120515BD502F80131205154C4503
:1008A000D4503112054550B4120515BD50AE120A90
:1008B000E0120515AC500812021F12039980EF12C6
:1008C00005DD1202230206111205DD12028712064F
:1008D0006F02060F120515474F54CF5009120AE058
:1008E0001205E30207F6120515474F5355C2500C87
:1008F0001207FF120AE01205E30207F6120515506F
:1009000052494ED450441205ED5039120515BB50D2
:100910000280F8120515AC50051200C580ED1205D5
:10092000ED50241205BF4006120AE012066F1205B0
:1009300015AC50051200C580D2120515BB500280BF
:10094000CA1205DD02060F02061112051549C6502E
:1009500018120AE0120515544845CE50001207F14E
:100960005002018812050F0183120515494E50559A
:10097000D4502C1205BF400B12054550191206E049
:10098000120223120515BB500280E8120515AC5067
:10099000081200C580DD020BD01205DD02060F1221
:1009A00005155245545552CE50051205E301061265
:1009B000051543414CCC500E120AE01205E3114BD1
:1009C00053D0E7020611120515464FD250241205E6
:1009D00045504E120515BD5048120AE012021F1272
:1009E000051554CF503B120AE01205E31207FF022F
:1009F00006111205154E4558D450281205455021B0
:100A00001205DD120283120399110F400512014AEB
:100A1000010612011F12011F12011F1201310206ED
:100A200011015C120515454EC450051205E301463F
:100A30001205154C4953D450151205ED500B120AEE
:100A4000E01207491206D5016A1206D1016A1205A1
:100A5000155255CE50051205E301801205154E457D
:100A6000D750051205DD015F12051552455345D4D7
:100A700050061205DD020000120515524FCD500A36
:100A80001205DDD241C2420206111205155241CDB6
:100A900050081205DDC24102061112051550524FD1
:100AA000CD500A1205DDD241D242020611120515BF
:100AB0004845D850081205DDD2440206111205152A
:100AC000444543494D41CC50081205DDC24402065D
:100AD000111205155245CD500512050F0183015C19
:100AE000120AF0120BD25046120AF012047380F36D
:100AF000120B2F120515AB5008120B2F1203498051
:100B0000F2120515AD5008120B2F12034F80E4129C
:100B100005154FD25008120B2F12036580D5120510
:100B200015584FD25008120B2F12036F80C5221296
:100B30000B6F120515AA5008120B6F1203DB80F21F
:100B4000120515AF5008120B6F1203EE80E4120568
:100B500015414EC45008120B6F12035B80D412056E
:100B6000154D4FC45008120B6F1203EA80C42212B5
:100B70000515AD5007120B8B120379221205154E85
:100B80004FD45007120B8B120388221205455004D4
:100B9000120287221205AA500122120515524EC4D4
:100BA000501012044B120BC11203EA12038B1203F2
:100BB00099221205154142D35007120BC112038B23
:100BC00022120515A8500951E0120515A95001225D
:100BD000015C120515BD500512015E0222120515B9
:100BE0003CBD500512015E06221205153CBE5005A3
:100BF00012015E0522120515BC500512015E042289
:100C00001205153EBD500512015E0322120515BEE8
:100C1000500512015E0122C3220F8F902208355029
:100C2000522E2248455245275320484F5720594FAE
:100C30005520504C415920414345592D4445554379
:100C400045593A220D083650522E2249274C4C2045
:100C50004445414C2054574F204341524453204671
:100C60004143452055502E220D083750522E22590F
:100C70004F5520424554204F4E2057484554484533
:100C80005220544845204E45585420434152442058
:100C900057494C4C2048415645220D083950522E98
:100CA00022412056414C5545204245545745454E1A
:100CB000205448452046495253542054574F2E2221
:100CC0000D083E453D3130300D088E50522E3A50C1
:100CD000522E22594F55204E4F57204841564520FD
:100CE000223B453B2220444F4C4C4152532E220D77
:100CF00008D450522E3A50522E2248455245204197
:100D0000524520594F5552204E4558542054574F64
:100D10002043415244532E2E2E223A50522E3A470F
:100D20004F532E343030300D08E8413D443A474FA0
:100D3000532E343030300D08F2423D443A494620BB
:100D4000413E4220423D413A413D440D08FC494666
:100D500020422D413C322050522E224D49534445D1
:100D6000414C223A474F2E323236300D0906494661
:100D700020422D413D31322050522E3A50522E22E7
:100D8000414345592D444555434559202D20474F52
:100D90004F44204F4444532121220D0A5A50522ED1
:100DA0003A494E2E22504C41434520594F5552202E
:100DB000424554223B460D0A64494620463E4520A2
:100DC00050522E22594F55275645204F4E4C5920F0
:100DD000474F5420223B453B22204255434B532052
:100DE0004C4546542C205455524B4559223A474FB6
:100DF0002E323635300D0A6E494620463D302050A1
:100E0000522E22434849434B454E205348495421D2
:100E100021223A50522E0D0A78494620463C302075
:100E2000463D2D463A50522E2249274C4C204153E4
:100E300053554D4520594F55204D45414E54202482
:100E4000223B463B222E3030220D0AAA50522E223F
:100E5000414E4420594F5552204C41535420434158
:100E600052442049532041202E2E2E20223B3A4727
:100E70004F532E343030300D0B5E494620443E41F6
:100E800020494620443C4220453D452B463A50529D
:100E90002E22594F552057494E212121223A474FA2
:100EA0002E323139300D0B9A453D452D463A505280
:100EB0002E22534F5252592C20594F55204C4F53EC
:100EC000452E223A494620453E3020474F2E3231AA
:100ED00039300D0BC250522E22465249454E442CF9
:100EE00020594F5520424C455720594F55522057B5
:100EF00041442E220D0BE050522E3A494E2E2254E0
:100F0000595045203120544F20504C4159204147E1
:100F100041494E222C443A494620443D3120474F16
:100F20002E323131300D0BF4454E440D0FA0443DAF
:100F3000524E44283133292B313A494620443C3122
:100F4000312050522E440D0FC8494620443D3131C6
:100F50002050522E224A41434B220D0FD2494620A7
:100F6000443D31322050522E22515545454E220DDE
:100F70000FDC494620443D31332050522E224B494C
:100F80004E47220D0FE6494620443D313420505251
:100F90002E22414345220D0FF05245542E0D800064
:100FA0000000000000000000000000000000000041
:100FB0000000000000000000000000000000000031
:100FC0000000000000000000000000000000000021
:100FD0000000000000000000000000000000000011
:100FE0000000000000000000000000000000000001
:100FF00000000000000000000000000000000000F1
:00000001FF
